// Copyright (C) 2019-2025, Ava Labs, Inc. All rights reserved.
// See the file LICENSE for licensing terms.
//
// This file is a derived work, based on the go-ethereum library whose original
// notices appear below.
//
// It is distributed under a license compatible with the licensing terms of the
// original code from which it is derived.
//
// Much love to the original authors for their work.
// **********
// Copyright 2014 The go-ethereum Authors
// This file is part of the go-ethereum library.
//
// The go-ethereum library is free software: you can redistribute it and/or modify
// it under the terms of the GNU Lesser General Public License as published by
// the Free Software Foundation, either version 3 of the License, or
// (at your option) any later version.
//
// The go-ethereum library is distributed in the hope that it will be useful,
// but WITHOUT ANY WARRANTY; without even the implied warranty of
// MERCHANTABILITY or FITNESS FOR A PARTICULAR PURPOSE. See the
// GNU Lesser General Public License for more details.
//
// You should have received a copy of the GNU Lesser General Public License
// along with the go-ethereum library. If not, see <http://www.gnu.org/licenses/>.

package customtypes_test

import (
	"bytes"
	"math/big"
	"reflect"
	"testing"

	"github.com/ava-labs/avalanchego/vms/evm/acp226"
	"github.com/ava-labs/libevm/common"
	"github.com/ava-labs/libevm/common/math"
	"github.com/ava-labs/libevm/core/types"
	"github.com/ava-labs/libevm/crypto"
	"github.com/ava-labs/libevm/rlp"

	"github.com/ava-labs/avalanchego/graft/subnet-evm/internal/blocktest"
	"github.com/ava-labs/avalanchego/graft/subnet-evm/params"

	// This test file has to be in package types_test to avoid a circular
	// dependency when importing `params`. We dot-import the package to mimic
	// regular same-package behaviour.
	. "github.com/ava-labs/avalanchego/graft/subnet-evm/plugin/evm/customtypes"
)

func TestBlockEncoding(t *testing.T) {
	blockEnc := common.FromHex("f90260f901f9a083cafc574e1f51ba9dc0568fc617a08ea2429fb384059c972f13b19fa1c8dd55a01dcc4de8dec75d7aab85b567b6ccd41ad312451b948a7413f0a142fd40d49347948888f1f195afa192cfee860698584c030f4c9db1a0ef1552a40b7165c3cd773806b9e0c165b75356e0314bf0706f279c729f51e017a05fe50b260da6308036625b850b5d6ced6d0a9f814c0688bc91ffb7b7a3a54b67a0bc37d79753ad738a6dac4921e57392f145d8887476de3f783dfa7edae9283e52b90100000000000000000000000000000000000000000000000000000000000000000000000000000000000000000000000000000000000000000000000000000000000000000000000000000000000000000000000000000000000000000000000000000000000000000000000000000000000000000000000000000000000000000000000000000000000000000000000000000000000000000000000000000000000000000000000000000000000000000000000000000000000000000000000000000000000000000000000000000000000000000000000000000000000000000000000000000000000000000000000000000000000000000000000000000000008302000001832fefd8825208845506eb0780a0bd4472abb6659ebe3ee06ee4d7b72a00a9f4d001caca51342001075469aff49888a13a5a8c8f2bb1c4f861f85f800a82c35094095e7baea6a6c7c4c2dfeb977efac326af552d870a801ba09bea4c4daac7c7c52e093e6a4c35dbbcf8856f1af7b059ba20253e70848d094fa08a8fae537ce25ed8cb5af9adac3f141af69bd515bd2ba031522df09b97dd72b1c0")
	var block types.Block
	if err := rlp.DecodeBytes(blockEnc, &block); err != nil {
		t.Fatal("decode error: ", err)
	}

	check := func(f string, got, want interface{}) {
		if !reflect.DeepEqual(got, want) {
			t.Errorf("%s mismatch: got %v, want %v", f, got, want)
		}
	}
	check("ParentHash", block.ParentHash(), common.HexToHash("0x83cafc574e1f51ba9dc0568fc617a08ea2429fb384059c972f13b19fa1c8dd55"))
	check("UncleHash", block.UncleHash(), common.HexToHash("1dcc4de8dec75d7aab85b567b6ccd41ad312451b948a7413f0a142fd40d49347"))
	check("Coinbase", block.Coinbase(), common.HexToAddress("0x8888f1F195AFa192CfeE860698584c030f4c9dB1"))
	check("Root", block.Root(), common.HexToHash("0xef1552a40b7165c3cd773806b9e0c165b75356e0314bf0706f279c729f51e017"))
	check("TxHash", block.TxHash(), common.HexToHash("0x5fe50b260da6308036625b850b5d6ced6d0a9f814c0688bc91ffb7b7a3a54b67"))
	check("ReceiptHash", block.ReceiptHash(), common.HexToHash("0xbc37d79753ad738a6dac4921e57392f145d8887476de3f783dfa7edae9283e52"))
	check("Bloom", block.Bloom(), types.BytesToBloom(common.FromHex("00000000000000000000000000000000000000000000000000000000000000000000000000000000000000000000000000000000000000000000000000000000000000000000000000000000000000000000000000000000000000000000000000000000000000000000000000000000000000000000000000000000000000000000000000000000000000000000000000000000000000000000000000000000000000000000000000000000000000000000000000000000000000000000000000000000000000000000000000000000000000000000000000000000000000000000000000000000000000000000000000000000000000000000000000000000")))
	check("Difficulty", block.Difficulty(), big.NewInt(131072))
	check("BlockNumber", block.NumberU64(), uint64(1))
	check("GasLimit", block.GasLimit(), uint64(3141592))
	check("GasUsed", block.GasUsed(), uint64(21000))
	check("Time", block.Time(), uint64(1426516743))
	check("Extra", block.Extra(), common.FromHex(""))
	check("MixDigest", block.MixDigest(), common.HexToHash("0xbd4472abb6659ebe3ee06ee4d7b72a00a9f4d001caca51342001075469aff498"))
	check("Nonce", block.Nonce(), uint64(11617697748499542468))
	check("BaseFee", block.BaseFee(), (*big.Int)(nil))
	check("BlockGasCost", BlockGasCost(&block), (*big.Int)(nil))
	check("TimeMilliseconds", BlockTimeMilliseconds(&block), (*uint64)(nil))
	check("MinDelayExcess", BlockMinDelayExcess(&block), (*acp226.DelayExcess)(nil))

	check("Size", block.Size(), uint64(len(blockEnc)))
	check("BlockHash", block.Hash(), common.HexToHash("0x0a5843ac1cb04865017cb35a57b50b07084e5fcee39b5acadade33149f4fff9e"))

	txHash := common.HexToHash("0x77b19baa4de67e45a7b26e4a220bccdbb6731885aa9927064e239ca232023215")
	check("len(Transactions)", len(block.Transactions()), 1)
	check("Transactions[0].Hash", block.Transactions()[0].Hash(), txHash)
	ourBlockEnc, err := rlp.EncodeToBytes(&block)
	if err != nil {
		t.Fatal("encode error: ", err)
	}
	if !bytes.Equal(ourBlockEnc, blockEnc) {
		t.Errorf("encoded block mismatch:\ngot:  %x\nwant: %x", ourBlockEnc, blockEnc)
	}
}

func TestEIP1559BlockEncoding(t *testing.T) {
	blockEnc := common.FromHex("f9030bf901fea083cafc574e1f51ba9dc0568fc617a08ea2429fb384059c972f13b19fa1c8dd55a01dcc4de8dec75d7aab85b567b6ccd41ad312451b948a7413f0a142fd40d49347948888f1f195afa192cfee860698584c030f4c9db1a0ef1552a40b7165c3cd773806b9e0c165b75356e0314bf0706f279c729f51e017a05fe50b260da6308036625b850b5d6ced6d0a9f814c0688bc91ffb7b7a3a54b67a0bc37d79753ad738a6dac4921e57392f145d8887476de3f783dfa7edae9283e52b90100000000000000000000000000000000000000000000000000000000000000000000000000000000000000000000000000000000000000000000000000000000000000000000000000000000000000000000000000000000000000000000000000000000000000000000000000000000000000000000000000000000000000000000000000000000000000000000000000000000000000000000000000000000000000000000000000000000000000000000000000000000000000000000000000000000000000000000000000000000000000000000000000000000000000000000000000000000000000000000000000000000000000000000000000000000008302000001832fefd8825208845506eb0780a0bd4472abb6659ebe3ee06ee4d7b72a00a9f4d001caca51342001075469aff49888a13a5a8c8f2bb1c4843b9aca00f90106f85f800a82c35094095e7baea6a6c7c4c2dfeb977efac326af552d870a801ba09bea4c4daac7c7c52e093e6a4c35dbbcf8856f1af7b059ba20253e70848d094fa08a8fae537ce25ed8cb5af9adac3f141af69bd515bd2ba031522df09b97dd72b1b8a302f8a0018080843b9aca008301e24194095e7baea6a6c7c4c2dfeb977efac326af552d878080f838f7940000000000000000000000000000000000000001e1a0000000000000000000000000000000000000000000000000000000000000000080a0fe38ca4e44a30002ac54af7cf922a6ac2ba11b7d22f548e8ecb3f51f41cb31b0a06de6a5cbae13c0c856e33acf021b51819636cfc009d39eafb9f606d546e305a8c0")
	var block types.Block
	if err := rlp.DecodeBytes(blockEnc, &block); err != nil {
		t.Fatal("decode error: ", err)
	}

	check := func(f string, got, want interface{}) {
		if !reflect.DeepEqual(got, want) {
			t.Errorf("%s mismatch: got %v, want %v", f, got, want)
		}
	}

	check("Difficulty", block.Difficulty(), big.NewInt(131072))
	check("GasLimit", block.GasLimit(), uint64(3141592))
	check("GasUsed", block.GasUsed(), uint64(21000))
	check("Coinbase", block.Coinbase(), common.HexToAddress("8888f1f195afa192cfee860698584c030f4c9db1"))
	check("MixDigest", block.MixDigest(), common.HexToHash("bd4472abb6659ebe3ee06ee4d7b72a00a9f4d001caca51342001075469aff498"))
	check("Root", block.Root(), common.HexToHash("ef1552a40b7165c3cd773806b9e0c165b75356e0314bf0706f279c729f51e017"))
	check("Hash", block.Hash(), common.HexToHash("c7252048cd273fe0dac09650027d07f0e3da4ee0675ebbb26627cea92729c372"))
	check("Nonce", block.Nonce(), uint64(0xa13a5a8c8f2bb1c4))
	check("Time", block.Time(), uint64(1426516743))
	check("Size", block.Size(), uint64(len(blockEnc)))
	check("BaseFee", block.BaseFee(), new(big.Int).SetUint64(1000000000))
	check("BlockGasCost", BlockGasCost(&block), (*big.Int)(nil))
	check("TimeMilliseconds", BlockTimeMilliseconds(&block), (*uint64)(nil))
	check("MinDelayExcess", BlockMinDelayExcess(&block), (*acp226.DelayExcess)(nil))

	tx1 := types.NewTransaction(0, common.HexToAddress("095e7baea6a6c7c4c2dfeb977efac326af552d87"), big.NewInt(10), 50000, big.NewInt(10), nil)
	tx1, _ = tx1.WithSignature(types.HomesteadSigner{}, common.Hex2Bytes("9bea4c4daac7c7c52e093e6a4c35dbbcf8856f1af7b059ba20253e70848d094f8a8fae537ce25ed8cb5af9adac3f141af69bd515bd2ba031522df09b97dd72b100"))

	addr := common.HexToAddress("0x0000000000000000000000000000000000000001")
	accesses := types.AccessList{types.AccessTuple{
		Address: addr,
		StorageKeys: []common.Hash{
			{0},
		},
	}}
	to := common.HexToAddress("095e7baea6a6c7c4c2dfeb977efac326af552d87")
	txdata := &types.DynamicFeeTx{
		ChainID:    big.NewInt(1),
		Nonce:      0,
		To:         &to,
		Gas:        123457,
		GasFeeCap:  new(big.Int).Set(block.BaseFee()),
		GasTipCap:  big.NewInt(0),
		AccessList: accesses,
		Data:       []byte{},
	}
	tx2 := types.NewTx(txdata)
	tx2, err := tx2.WithSignature(types.LatestSignerForChainID(big.NewInt(1)), common.Hex2Bytes("fe38ca4e44a30002ac54af7cf922a6ac2ba11b7d22f548e8ecb3f51f41cb31b06de6a5cbae13c0c856e33acf021b51819636cfc009d39eafb9f606d546e305a800"))
	if err != nil {
		t.Fatal("invalid signature error: ", err)
	}

	check("len(Transactions)", len(block.Transactions()), 2)
	check("Transactions[0].Hash", block.Transactions()[0].Hash(), tx1.Hash())
	check("Transactions[1].Hash", block.Transactions()[1].Hash(), tx2.Hash())
	check("Transactions[1].Type", block.Transactions()[1].Type(), tx2.Type())
	ourBlockEnc, err := rlp.EncodeToBytes(&block)
	if err != nil {
		t.Fatal("encode error: ", err)
	}
	if !bytes.Equal(ourBlockEnc, blockEnc) {
		t.Errorf("encoded block mismatch:\ngot:  %x\nwant: %x", ourBlockEnc, blockEnc)
	}
}

func TestEIP2718BlockEncoding(t *testing.T) {
	blockEnc := common.FromHex("f90319f90211a00000000000000000000000000000000000000000000000000000000000000000a01dcc4de8dec75d7aab85b567b6ccd41ad312451b948a7413f0a142fd40d49347948888f1f195afa192cfee860698584c030f4c9db1a0ef1552a40b7165c3cd773806b9e0c165b75356e0314bf0706f279c729f51e017a0e6e49996c7ec59f7a23d22b83239a60151512c65613bf84a0d7da336399ebc4aa0cafe75574d59780665a97fbfd11365c7545aa8f1abf4e5e12e8243334ef7286bb901000000000000000000000000000000000000000000000000000000000000000000000000000000000000000000000000000000000000000000000000000000000000000000000000000000000000000000000000000000000000000000000000000000000000000000000000000000000000000000000000000000000000000000000000000000000000000000000000000000000000000000000000000000000000000000000000000000000000000000000000000000000000000000000000000000000000000000000000000000000000000000000000000000000000000000000000000000000000000000000000000000000000000000000000000000000083020000820200832fefd882a410845506eb0796636f6f6c65737420626c6f636b206f6e20636861696ea0bd4472abb6659ebe3ee06ee4d7b72a00a9f4d001caca51342001075469aff49888a13a5a8c8f2bb1c4f90101f85f800a82c35094095e7baea6a6c7c4c2dfeb977efac326af552d870a801ba09bea4c4daac7c7c52e093e6a4c35dbbcf8856f1af7b059ba20253e70848d094fa08a8fae537ce25ed8cb5af9adac3f141af69bd515bd2ba031522df09b97dd72b1b89e01f89b01800a8301e24194095e7baea6a6c7c4c2dfeb977efac326af552d878080f838f7940000000000000000000000000000000000000001e1a0000000000000000000000000000000000000000000000000000000000000000001a03dbacc8d0259f2508625e97fdfc57cd85fdd16e5821bc2c10bdd1a52649e8335a0476e10695b183a87b0aa292a7f4b78ef0c3fbe62aa2c42c84e1d9c3da159ef14c0")
	var block types.Block
	if err := rlp.DecodeBytes(blockEnc, &block); err != nil {
		t.Fatal("decode error: ", err)
	}

	check := func(f string, got, want interface{}) {
		if !reflect.DeepEqual(got, want) {
			t.Errorf("%s mismatch: got %v, want %v", f, got, want)
		}
	}
	check("Difficulty", block.Difficulty(), big.NewInt(131072))
	check("GasLimit", block.GasLimit(), uint64(3141592))
	check("GasUsed", block.GasUsed(), uint64(42000))
	check("Coinbase", block.Coinbase(), common.HexToAddress("8888f1f195afa192cfee860698584c030f4c9db1"))
	check("MixDigest", block.MixDigest(), common.HexToHash("bd4472abb6659ebe3ee06ee4d7b72a00a9f4d001caca51342001075469aff498"))
	check("Root", block.Root(), common.HexToHash("ef1552a40b7165c3cd773806b9e0c165b75356e0314bf0706f279c729f51e017"))
	check("Nonce", block.Nonce(), uint64(0xa13a5a8c8f2bb1c4))
	check("Time", block.Time(), uint64(1426516743))
	check("Size", block.Size(), uint64(len(blockEnc)))
	check("BaseFee", block.BaseFee(), (*big.Int)(nil))
	check("BlockGasCost", BlockGasCost(&block), (*big.Int)(nil))
	check("TimeMilliseconds", BlockTimeMilliseconds(&block), (*uint64)(nil))
	check("MinDelayExcess", BlockMinDelayExcess(&block), (*acp226.DelayExcess)(nil))

	// Create legacy tx.
	to := common.HexToAddress("095e7baea6a6c7c4c2dfeb977efac326af552d87")
	tx1 := types.NewTx(&types.LegacyTx{
		Nonce:    0,
		To:       &to,
		Value:    big.NewInt(10),
		Gas:      50000,
		GasPrice: big.NewInt(10),
	})
	sig := common.Hex2Bytes("9bea4c4daac7c7c52e093e6a4c35dbbcf8856f1af7b059ba20253e70848d094f8a8fae537ce25ed8cb5af9adac3f141af69bd515bd2ba031522df09b97dd72b100")
	tx1, _ = tx1.WithSignature(types.HomesteadSigner{}, sig)

	// Create ACL tx.
	addr := common.HexToAddress("0x0000000000000000000000000000000000000001")
	tx2 := types.NewTx(&types.AccessListTx{
		ChainID:    big.NewInt(1),
		Nonce:      0,
		To:         &to,
		Gas:        123457,
		GasPrice:   big.NewInt(10),
		AccessList: types.AccessList{{Address: addr, StorageKeys: []common.Hash{{0}}}},
	})
	sig2 := common.Hex2Bytes("3dbacc8d0259f2508625e97fdfc57cd85fdd16e5821bc2c10bdd1a52649e8335476e10695b183a87b0aa292a7f4b78ef0c3fbe62aa2c42c84e1d9c3da159ef1401")
	tx2, _ = tx2.WithSignature(types.NewEIP2930Signer(big.NewInt(1)), sig2)

	check("len(Transactions)", len(block.Transactions()), 2)
	check("Transactions[0].Hash", block.Transactions()[0].Hash(), tx1.Hash())
	check("Transactions[1].Hash", block.Transactions()[1].Hash(), tx2.Hash())
	check("Transactions[1].Type()", block.Transactions()[1].Type(), uint8(types.AccessListTxType))

	ourBlockEnc, err := rlp.EncodeToBytes(&block)
	if err != nil {
		t.Fatal("encode error: ", err)
	}
	if !bytes.Equal(ourBlockEnc, blockEnc) {
		t.Errorf("encoded block mismatch:\ngot:  %x\nwant: %x", ourBlockEnc, blockEnc)
	}
}

func TestUncleHash(t *testing.T) {
	uncles := make([]*types.Header, 0)
	h := types.CalcUncleHash(uncles)
	exp := common.HexToHash("1dcc4de8dec75d7aab85b567b6ccd41ad312451b948a7413f0a142fd40d49347")
	if h != exp {
		t.Fatalf("empty uncle hash is wrong, got %x != %x", h, exp)
	}
}

var benchBuffer = bytes.NewBuffer(make([]byte, 0, 32000))

func BenchmarkEncodeBlock(b *testing.B) {
	block := makeBenchBlock()
	b.ResetTimer()

	for i := 0; i < b.N; i++ {
		benchBuffer.Reset()
		if err := rlp.Encode(benchBuffer, block); err != nil {
			b.Fatal(err)
		}
	}
}

func makeBenchBlock() *types.Block {
	var (
		key, _   = crypto.GenerateKey()
		txs      = make([]*types.Transaction, 70)
		receipts = make([]*types.Receipt, len(txs))
		signer   = types.LatestSigner(params.TestChainConfig)
		uncles   = make([]*types.Header, 3)
	)
	header := &types.Header{
		Difficulty: math.BigPow(11, 11),
		Number:     math.BigPow(2, 9),
		GasLimit:   12345678,
		GasUsed:    1476322,
		Time:       9876543,
		Extra:      []byte("coolest block on chain"),
	}
	for i := range txs {
		amount := math.BigPow(2, int64(i))
		price := big.NewInt(300000)
		data := make([]byte, 100)
		tx := types.NewTransaction(uint64(i), common.Address{}, amount, 123457, price, data)
		signedTx, err := types.SignTx(tx, signer, key)
		if err != nil {
			panic(err)
		}
		txs[i] = signedTx
		receipts[i] = types.NewReceipt(make([]byte, 32), false, tx.Gas())
	}
	for i := range uncles {
		uncles[i] = &types.Header{
			Difficulty: math.BigPow(11, 11),
			Number:     math.BigPow(2, 9),
			GasLimit:   12345678,
			GasUsed:    1476322,
			Time:       9876543,
			Extra:      []byte("benchmark uncle"),
		}
	}
	return types.NewBlock(header, txs, uncles, receipts, blocktest.NewHasher())
}

func TestSubnetEVMBlockEncoding(t *testing.T) {
	blockEnc := common.FromHex("f9030ff90202a083cafc574e1f51ba9dc0568fc617a08ea2429fb384059c972f13b19fa1c8dd55a01dcc4de8dec75d7aab85b567b6ccd41ad312451b948a7413f0a142fd40d49347948888f1f195afa192cfee860698584c030f4c9db1a0ef1552a40b7165c3cd773806b9e0c165b75356e0314bf0706f279c729f51e017a05fe50b260da6308036625b850b5d6ced6d0a9f814c0688bc91ffb7b7a3a54b67a0bc37d79753ad738a6dac4921e57392f145d8887476de3f783dfa7edae9283e52b90100000000000000000000000000000000000000000000000000000000000000000000000000000000000000000000000000000000000000000000000000000000000000000000000000000000000000000000000000000000000000000000000000000000000000000000000000000000000000000000000000000000000000000000000000000000000000000000000000000000000000000000000000000000000000000000000000000000000000000000000000000000000000000000000000000000000000000000000000000000000000000000000000000000000000000000000000000000000000000000000000000000000000000000000000000000008302000001832fefd8825208845506eb0780a0bd4472abb6659ebe3ee06ee4d7b72a00a9f4d001caca51342001075469aff49888a13a5a8c8f2bb1c4843b9aca00830186a0f90106f85f800a82c35094095e7baea6a6c7c4c2dfeb977efac326af552d870a801ba09bea4c4daac7c7c52e093e6a4c35dbbcf8856f1af7b059ba20253e70848d094fa08a8fae537ce25ed8cb5af9adac3f141af69bd515bd2ba031522df09b97dd72b1b8a302f8a0018080843b9aca008301e24194095e7baea6a6c7c4c2dfeb977efac326af552d878080f838f7940000000000000000000000000000000000000001e1a0000000000000000000000000000000000000000000000000000000000000000080a0fe38ca4e44a30002ac54af7cf922a6ac2ba11b7d22f548e8ecb3f51f41cb31b0a06de6a5cbae13c0c856e33acf021b51819636cfc009d39eafb9f606d546e305a8c0")
	var block types.Block
	if err := rlp.DecodeBytes(blockEnc, &block); err != nil {
		t.Fatal("decode error: ", err)
	}

	check := func(f string, got, want interface{}) {
		if !reflect.DeepEqual(got, want) {
			t.Errorf("%s mismatch: got %v, want %v", f, got, want)
		}
	}

	check("Difficulty", block.Difficulty(), big.NewInt(131072))
	check("GasLimit", block.GasLimit(), uint64(3141592))
	check("GasUsed", block.GasUsed(), uint64(21000))
	check("Coinbase", block.Coinbase(), common.HexToAddress("8888f1f195afa192cfee860698584c030f4c9db1"))
	check("MixDigest", block.MixDigest(), common.HexToHash("bd4472abb6659ebe3ee06ee4d7b72a00a9f4d001caca51342001075469aff498"))
	check("Root", block.Root(), common.HexToHash("ef1552a40b7165c3cd773806b9e0c165b75356e0314bf0706f279c729f51e017"))
	check("Hash", block.Hash(), common.HexToHash("0x06206d4ff804e93b36a8447a12a47653b07fd18115a05956c5ed8817f0b11eb9"))
	check("Nonce", block.Nonce(), uint64(0xa13a5a8c8f2bb1c4))
	check("Time", block.Time(), uint64(1426516743))
	check("Size", block.Size(), uint64(len(blockEnc)))
	check("BaseFee", block.BaseFee(), big.NewInt(1_000_000_000))
	check("BlockGasCost", BlockGasCost(&block), big.NewInt(100_000))
	check("TimeMilliseconds", BlockTimeMilliseconds(&block), (*uint64)(nil))
	check("MinDelayExcess", BlockMinDelayExcess(&block), (*acp226.DelayExcess)(nil))

	tx1 := types.NewTransaction(0, common.HexToAddress("095e7baea6a6c7c4c2dfeb977efac326af552d87"), big.NewInt(10), 50000, big.NewInt(10), nil)
	tx1, _ = tx1.WithSignature(types.HomesteadSigner{}, common.Hex2Bytes("9bea4c4daac7c7c52e093e6a4c35dbbcf8856f1af7b059ba20253e70848d094f8a8fae537ce25ed8cb5af9adac3f141af69bd515bd2ba031522df09b97dd72b100"))

	addr := common.HexToAddress("0x0000000000000000000000000000000000000001")
	accesses := types.AccessList{types.AccessTuple{
		Address: addr,
		StorageKeys: []common.Hash{
			{0},
		},
	}}
	to := common.HexToAddress("095e7baea6a6c7c4c2dfeb977efac326af552d87")
	txdata := &types.DynamicFeeTx{
		ChainID:    big.NewInt(1),
		Nonce:      0,
		To:         &to,
		Gas:        123457,
		GasFeeCap:  new(big.Int).Set(block.BaseFee()),
		GasTipCap:  big.NewInt(0),
		AccessList: accesses,
		Data:       []byte{},
	}
	tx2 := types.NewTx(txdata)
	tx2, err := tx2.WithSignature(types.LatestSignerForChainID(big.NewInt(1)), common.Hex2Bytes("fe38ca4e44a30002ac54af7cf922a6ac2ba11b7d22f548e8ecb3f51f41cb31b06de6a5cbae13c0c856e33acf021b51819636cfc009d39eafb9f606d546e305a800"))
	if err != nil {
		t.Fatal("invalid signature error: ", err)
	}

	check("len(Transactions)", len(block.Transactions()), 2)
	check("Transactions[0].Hash", block.Transactions()[0].Hash(), tx1.Hash())
	check("Transactions[1].Hash", block.Transactions()[1].Hash(), tx2.Hash())
	check("Transactions[1].Type", block.Transactions()[1].Type(), tx2.Type())
	ourBlockEnc, err := rlp.EncodeToBytes(&block)
	if err != nil {
		t.Fatal("encode error: ", err)
	}
	if !bytes.Equal(ourBlockEnc, blockEnc) {
		t.Errorf("encoded block mismatch:\ngot:  %x\nwant: %x", ourBlockEnc, blockEnc)
	}
}
